{
  "contractName": "Creator",
  "abi": [
    {
      "constant": false,
      "inputs": [
        {
          "internalType": "uint32",
          "name": "_timeLimit",
          "type": "uint32"
        },
        {
          "internalType": "uint8",
          "name": "_ballotType",
          "type": "uint8"
        },
        {
          "internalType": "uint8",
          "name": "_voteLimit",
          "type": "uint8"
        },
        {
          "internalType": "uint32",
          "name": "_ballotId",
          "type": "uint32"
        },
        {
          "internalType": "string",
          "name": "_title",
          "type": "string"
        },
        {
          "internalType": "uint8",
          "name": "_whitelisted",
          "type": "uint8"
        }
      ],
      "name": "createBallot",
      "outputs": [],
      "payable": false,
      "stateMutability": "nonpayable",
      "type": "function"
    },
    {
      "constant": true,
      "inputs": [
        {
          "internalType": "uint32",
          "name": "id",
          "type": "uint32"
        }
      ],
      "name": "getAddress",
      "outputs": [
        {
          "internalType": "address",
          "name": "contractAddress",
          "type": "address"
        }
      ],
      "payable": false,
      "stateMutability": "view",
      "type": "function"
    }
  ],
  "bytecode": "0x608060405234801561001057600080fd5b5061181a806100206000396000f3fe608060405234801561001057600080fd5b50600436106100365760003560e01c8063550da4781461003b57806368501aee1461013d575b600080fd5b61013b600480360360c081101561005157600080fd5b81019080803563ffffffff169060200190929190803560ff169060200190929190803560ff169060200190929190803563ffffffff169060200190929190803590602001906401000000008111156100a857600080fd5b8201836020820111156100ba57600080fd5b803590602001918460018302840111640100000000831117156100dc57600080fd5b91908080601f016020809104026020016040519081016040528093929190818152602001838380828437600081840152601f19601f820116905080830192505050505050509192919290803560ff1690602001909291905050506101b1565b005b61016f6004803603602081101561015357600080fd5b81019080803563ffffffff16906020019092919050505061039d565b604051808273ffffffffffffffffffffffffffffffffffffffff1673ffffffffffffffffffffffffffffffffffffffff16815260200191505060405180910390f35b33600160006101000a81548173ffffffffffffffffffffffffffffffffffffffff021916908373ffffffffffffffffffffffffffffffffffffffff1602179055506000868686868686600160009054906101000a900473ffffffffffffffffffffffffffffffffffffffff16604051610229906103e5565b808863ffffffff1663ffffffff1681526020018760ff1660ff1681526020018660ff1660ff1681526020018563ffffffff1663ffffffff168152602001806020018460ff1660ff1681526020018373ffffffffffffffffffffffffffffffffffffffff1673ffffffffffffffffffffffffffffffffffffffff168152602001828103825285818151815260200191508051906020019080838360005b838110156102e05780820151818401526020810190506102c5565b50505050905090810190601f16801561030d5780820380516001836020036101000a031916815260200191505b5098505050505050505050604051809103906000f080158015610334573d6000803e3d6000fd5b509050806000808663ffffffff1663ffffffff16815260200190815260200160002060006101000a81548173ffffffffffffffffffffffffffffffffffffffff021916908373ffffffffffffffffffffffffffffffffffffffff16021790555050505050505050565b60008060008363ffffffff1663ffffffff16815260200190815260200160002060009054906101000a900473ffffffffffffffffffffffffffffffffffffffff169050919050565b6113f3806103f38339019056fe60806040523480156200001157600080fd5b50604051620013f3380380620013f3833981810160405260e08110156200003757600080fd5b8101908080519060200190929190805190602001909291908051906020019092919080519060200190929190805160405193929190846401000000008211156200008057600080fd5b838201915060208201858111156200009757600080fd5b8251866001820283011164010000000082111715620000b557600080fd5b8083526020830192505050908051906020019080838360005b83811015620000eb578082015181840152602081019050620000ce565b50505050905090810190601f168015620001195780820380516001836020036101000a031916815260200191505b50604052602001805190602001909291908051906020019092919050505086600560000160066101000a81548163ffffffff021916908363ffffffff16021790555085600560000160006101000a81548160ff021916908360ff16021790555084600560000160056101000a81548160ff021916908360ff16021790555083600560000160016101000a81548163ffffffff021916908363ffffffff1602179055508260056001019080519060200190620001d692919062000243565b5081600560020160006101000a81548160ff021916908360ff16021790555080601060006101000a81548173ffffffffffffffffffffffffffffffffffffffff021916908373ffffffffffffffffffffffffffffffffffffffff16021790555050505050505050620002f2565b828054600181600116156101000203166002900490600052602060002090601f016020900481019282601f106200028657805160ff1916838001178555620002b7565b82800160010185558215620002b7579182015b82811115620002b657825182559160200191906001019062000299565b5b509050620002c69190620002ca565b5090565b620002ef91905b80821115620002eb576000816000905550600101620002d1565b5090565b90565b6110f180620003026000396000f3fe608060405234801561001057600080fd5b50600436106100ea5760003560e01c80636ec4847a1161008c578063b8381c7811610066578063b8381c7814610326578063c9ccaea1146103de578063d05841a014610534578063ff3c1a8f146105ec576100ea565b80636ec4847a14610235578063922133e314610257578063a711b87814610299576100ea565b80635374be8f116100c85780635374be8f14610199578063555a1ad6146101df5780635b9eb761146102095780636cfd8b821461022b576100ea565b806306f2057a146100ef5780632f265cf714610111578063392e667814610153575b600080fd5b6100f761066f565b604051808215151515815260200191505060405180910390f35b61013d6004803603602081101561012757600080fd5b81019080803590602001909291905050506106a0565b6040518082815260200191505060405180910390f35b61017f6004803603602081101561016957600080fd5b810190808035906020019092919050505061070e565b604051808215151515815260200191505060405180910390f35b6101c5600480360360208110156101af57600080fd5b8101908080359060200190929190505050610785565b604051808215151515815260200191505060405180910390f35b6101e76107e1565b604051808263ffffffff1663ffffffff16815260200191505060405180910390f35b6102116107fe565b604051808215151515815260200191505060405180910390f35b610233610833565b005b61023d61092d565b604051808215151515815260200191505060405180910390f35b6102836004803603602081101561026d57600080fd5b81019080803590602001909291905050506109af565b6040518082815260200191505060405180910390f35b6102cf600480360360208110156102af57600080fd5b81019080803567ffffffffffffffff1690602001909291905050506109e8565b6040518080602001828103825283818151815260200191508051906020019060200280838360005b838110156103125780820151818401526020810190506102f7565b505050509050019250505060405180910390f35b6103dc6004803603602081101561033c57600080fd5b810190808035906020019064010000000081111561035957600080fd5b82018360208201111561036b57600080fd5b8035906020019184602083028401116401000000008311171561038d57600080fd5b919080806020026020016040519081016040528093929190818152602001838360200280828437600081840152601f19601f820116905080830192505050505050509192919290505050610a5e565b005b610532600480360360608110156103f457600080fd5b810190808035906020019064010000000081111561041157600080fd5b82018360208201111561042357600080fd5b8035906020019184602083028401116401000000008311171561044557600080fd5b919080806020026020016040519081016040528093929190818152602001838360200280828437600081840152601f19601f82011690508083019250505050505050919291929080359060200190929190803590602001906401000000008111156104af57600080fd5b8201836020820111156104c157600080fd5b803590602001918460208302840111640100000000831117156104e357600080fd5b919080806020026020016040519081016040528093929190818152602001838360200280828437600081840152601f19601f820116905080830192505050505050509192919290505050610b1a565b005b6105ea6004803603602081101561054a57600080fd5b810190808035906020019064010000000081111561056757600080fd5b82018360208201111561057957600080fd5b8035906020019184602083028401116401000000008311171561059b57600080fd5b919080806020026020016040519081016040528093929190818152602001838360200280828437600081840152601f19601f820116905080830192505050505050509192919290505050610c72565b005b6105f4610d2d565b6040518080602001828103825283818151815260200191508051906020019080838360005b83811015610634578082015181840152602081019050610619565b50505050905090810190601f1680156106615780820380516001836020036101000a031916815260200191505b509250505060405180910390f35b60006001600560020160009054906101000a900460ff1660ff161415610698576001905061069d565b600090505b90565b60008015156106ad610dd2565b15151480156106c75750600115156106c36107fe565b1515145b156106d55760009050610709565b600015156106e28361070e565b151514156106ef57600080fd5b600060020160008381526020019081526020016000205490505b919050565b600080600090505b600080018054905081101561077a57600080600001828154811061073657fe5b90600052602060002001549050836000600101600083815260200190815260200160002054141561076c57600192505050610780565b508080600101915050610716565b50600090505b919050565b600080600090505b6003600001805490508110156107d65782600360000182815481106107ae57fe5b906000526020600020015414156107c95760019150506107dc565b808060010191505061078d565b50600090505b919050565b6000600560000160069054906101000a900463ffffffff16905090565b6000600560000160069054906101000a900463ffffffff1663ffffffff16421061082b5760009050610830565b600190505b90565b601060009054906101000a900473ffffffffffffffffffffffffffffffffffffffff1673ffffffffffffffffffffffffffffffffffffffff163373ffffffffffffffffffffffffffffffffffffffff161461088d57600080fd5b60008090505b600080018054905081101561092a576000800181815481106108b157fe5b9060005260206000200154600a819055506108cd600a54610e03565b8051906020012060006001016000600a54815260200190815260200160002081905550600160006002016000610904600a54610e03565b805190602001208152602001908152602001600020819055508080600101915050610893565b50565b6000600560000160059054906101000a900460ff1660ff16600360010160003373ffffffffffffffffffffffffffffffffffffffff1673ffffffffffffffffffffffffffffffffffffffff16815260200190815260200160002060009054906101000a900460ff1660ff1614156109a757600090506109ac565b600190505b90565b60008015156109bd8361070e565b151514156109ca57600080fd5b60006002016000838152602001908152602001600020549050919050565b6060600015156109f783610f96565b15151415610a0457600080fd5b60008001805480602002602001604051908101604052809291908181526020018280548015610a5257602002820191906000526020600020905b815481526020019060010190808311610a3e575b50505050509050919050565b601060009054906101000a900473ffffffffffffffffffffffffffffffffffffffff1673ffffffffffffffffffffffffffffffffffffffff163373ffffffffffffffffffffffffffffffffffffffff1614610ab857600080fd5b60008090505b8151811015610b16576003600001828281518110610ad857fe5b602002602001015190806001815401808255809150509060018203906000526020600020016000909192909190915055508080600101915050610abe565b5050565b82600d9080519060200190610b30929190610fd8565b5080600e9080519060200190610b47929190611025565b506001600360010160003373ffffffffffffffffffffffffffffffffffffffff1673ffffffffffffffffffffffffffffffffffffffff16815260200190815260200160002060008282829054906101000a900460ff160192506101000a81548160ff021916908360ff16021790555060008090505b600e80549050811015610c6c57600e8181548110610bd657fe5b9060005260206000200154600a8190555060006001016000600a54815260200190815260200160002054600c8190555060001515610c15600c5461070e565b15151415610c2257600080fd5b600d8181548110610c2f57fe5b9060005260206000200154600b81905550600b5460006002016000600c548152602001908152602001600020819055508080600101915050610bbc565b50505050565b601060009054906101000a900473ffffffffffffffffffffffffffffffffffffffff1673ffffffffffffffffffffffffffffffffffffffff163373ffffffffffffffffffffffffffffffffffffffff1614610ccc57600080fd5b60008090505b8151811015610d295760008001828281518110610ceb57fe5b602002602001015190806001815401808255809150509060018203906000526020600020016000909192909190915055508080600101915050610cd2565b5050565b606060056001018054600181600116156101000203166002900480601f016020809104026020016040519081016040528092919081815260200182805460018160011615610100020316600290048015610dc85780601f10610d9d57610100808354040283529160200191610dc8565b820191906000526020600020905b815481529060010190602001808311610dab57829003601f168201915b5050505050905090565b60006001600560000160009054906101000a900460ff1660ff161415610dfb5760009050610e00565b600190505b90565b60608060206040519080825280601f01601f191660200182016040528015610e3a5781602001600182028038833980820191505090505b509050600080905060008090505b6020811015610ee45760008160080260020a8660001c0260001b9050600060f81b817effffffffffffffffffffffffffffffffffffffffffffffffffffffffffffff191614610ed65780848481518110610e9e57fe5b60200101907effffffffffffffffffffffffffffffffffffffffffffffffffffffffffffff1916908160001a90535082806001019350505b508080600101915050610e48565b506060816040519080825280601f01601f191660200182016040528015610f1a5781602001600182028038833980820191505090505b50905060008090505b82811015610f8a57838181518110610f3757fe5b602001015160f81c60f81b828281518110610f4e57fe5b60200101907effffffffffffffffffffffffffffffffffffffffffffffffffffffffffffff1916908160001a9053508080600101915050610f23565b50809350505050919050565b6000600560000160019054906101000a900463ffffffff1663ffffffff168267ffffffffffffffff161415610fce5760019050610fd3565b600090505b919050565b828054828255906000526020600020908101928215611014579160200282015b82811115611013578251825591602001919060010190610ff8565b5b5090506110219190611072565b5090565b828054828255906000526020600020908101928215611061579160200282015b82811115611060578251825591602001919060010190611045565b5b50905061106e9190611097565b5090565b61109491905b80821115611090576000816000905550600101611078565b5090565b90565b6110b991905b808211156110b557600081600090555060010161109d565b5090565b9056fea265627a7a72315820a32d753ae8f4f4d43d1769fdf0c64d9089d02c58dc5ff340bddb4636e3a0b19664736f6c63430005100032a265627a7a7231582082e93c0c830a916b66e849251e1ef78aaf07ebfa7d66c4714f4ffb1cc4d5878364736f6c63430005100032",
  "source": "pragma solidity >=0.4.21 <0.7.0;\n\ncontract Voting {\n\n    struct Ballot {\n        uint8 ballotType;\n        uint32 ballotId;\n        uint8 voteLimit;\n        uint32 timeLimit;\n        string title;\n        uint8 whitelist;\n    }\n\n    struct Candidates {\n        bytes32[] candidateList;\n        mapping (bytes32 => bytes32) candidateHash;\n        mapping (bytes32 => uint256) votesReceived;\n    }\n\n    struct Voter {\n        bytes32[] whitelisted;\n        mapping (address => uint8) attemptedVotes;\n    }\n\n    Candidates c;\n    Voter v;\n    Ballot b;\n\n    string convertCandidate;\n    string tempTitle;\n    bytes32 tempCandidate;\n    uint256 tempVote;\n    bytes32 tempHash;\n    uint256[] tempVotes;\n    bytes32[] tempCandidates;\n    bytes32 tempEmail;\n    address owner;\n\n    constructor(uint32 _timeLimit, uint8 _ballotType, uint8 _voteLimit, uint32 _ballotId, string memory _title, uint8 _whitelist, address _owner) public {\n        b.timeLimit = _timeLimit;\n        b.ballotType = _ballotType;\n        b.voteLimit = _voteLimit;\n        b.ballotId = _ballotId;\n        b.title = _title;\n        b.whitelist = _whitelist;\n\n        owner = _owner;\n    }\n\n    modifier onlyOwner {\n        require(msg.sender == owner);\n        _;\n    }\n\n    function setCandidates(bytes32[] memory _candidates) public onlyOwner {\n        for(uint i = 0; i < _candidates.length; i++) {\n            c.candidateList.push(_candidates[i]);\n        }\n    }\n\n    function setWhitelisted(bytes32[] memory _emails) public onlyOwner {\n        for(uint i = 0; i < _emails.length; i++) {\n         \n            v.whitelisted.push(_emails[i]);\n        }\n    }\n\n    function hashCandidates() public onlyOwner {\n     \n        for(uint i = 0; i < c.candidateList.length; i++) {\n            tempCandidate = c.candidateList[i];\n            c.candidateHash[tempCandidate] = keccak256(bytes32ToString(tempCandidate));\n            c.votesReceived[keccak256(bytes32ToString(tempCandidate))] = 1;\n        }\n    }\n\n    function voteForCandidate(uint256[] memory _votes, bytes32 _email, bytes32[] memory _candidates) public {\n        // if (checkTimelimit() == false || checkVoteattempts() == false) revert();\n        // if (checkWhitelist() == true && checkifWhitelisted(_email) == false) revert();\n        tempVotes = _votes;\n        tempCandidates = _candidates;\n        v.attemptedVotes[msg.sender] += 1;\n\n        for(uint i = 0; i < tempCandidates.length; i++) {\n            tempCandidate = tempCandidates[i];\n            tempHash = c.candidateHash[tempCandidate];\n            if (validCandidate(tempHash) == false) revert();\n            tempVote = tempVotes[i];\n            c.votesReceived[tempHash] = tempVote;\n        }\n    }\n\n    function votesFor(bytes32 cHash) public view returns (uint256){\n        if (validCandidate(cHash) == false) revert();\n        return c.votesReceived[cHash];\n    }\n\n    function totalVotesFor(bytes32 cHash) public view returns (uint256){\n        if (checkBallottype() == false && checkTimelimit() == true) return 0;\n        if (validCandidate(cHash) == false) revert();\n        return c.votesReceived[cHash];\n    }\n\n    function bytes32ToString(bytes32 x) private pure returns (bytes memory) {\n        bytes memory bytesString = new bytes(32);\n        uint charCount = 0;\n        for (uint j = 0; j < 32; j++) {\n            byte char = byte(bytes32(uint(x) * 2 ** (8 * j)));\n            if (char != 0) {\n                bytesString[charCount] = char;\n                charCount++;\n            }\n        }\n        bytes memory bytesStringTrimmed = new bytes(charCount);\n        for (uint j = 0; j < charCount; j++) {\n            bytesStringTrimmed[j] = bytesString[j];\n        }\n        return (bytesStringTrimmed);\n    }\n\n    function validCandidate(bytes32 cHash) public view returns (bool) {\n        for(uint k = 0; k < c.candidateList.length; k++) {\n            bytes32 t = c.candidateList[k];\n            if (c.candidateHash[t] == cHash) {\n                return true;\n            }\n        }\n        return false;\n    }\n\n    function candidateList(uint64 _ballotID) public view returns (bytes32[] memory) {\n        if (checkballotID(_ballotID) == false) revert();\n        return c.candidateList;\n    }\n\n    function checkTimelimit() public view returns (bool) {\n        if (block.timestamp >= b.timeLimit) return false;\n        else return true;\n    }\n\n    function checkBallottype() private view returns (bool) {\n        if (b.ballotType == 1) return false;\n        else return true;\n    }\n\n    function checkballotID(uint64 ballotID) private view returns (bool) {\n        if (ballotID == b.ballotId) return true;\n        else return false;\n    }\n\n    function checkVoteattempts() public view returns (bool) {\n        if (v.attemptedVotes[msg.sender] == b.voteLimit) return false;\n        else return true;\n    }\n\n    function checkWhitelist() public view returns (bool) {\n        if (b.whitelist == 1) return true;\n        else return false;\n    }\n\n    function checkifWhitelisted(bytes32 email) public view returns (bool) {\n        for(uint j = 0; j < v.whitelisted.length; j++) {\n            if (v.whitelisted[j] == email) {\n                return true;\n            }\n        }\n        return false;\n    }\n\n    function getTimelimit() public view returns (uint32) {\n        return b.timeLimit;\n    }\n\n    function getTitle() public view returns (string memory) {\n        return b.title;\n    }\n}\n\n//                         //\n//Start of Creator contract//\n//                         //\n\ncontract Creator {\n\n    mapping (uint32 => address) contracts;\n    address owner;\n\n    function createBallot(uint32 _timeLimit, uint8 _ballotType, uint8 _voteLimit, uint32 _ballotId, string memory _title, uint8 _whitelisted) public {\n        owner = msg.sender;\n        address newContract = address(new Voting(_timeLimit, _ballotType, _voteLimit, _ballotId, _title, _whitelisted, owner));\n        contracts[_ballotId] = newContract;\n    }\n\n    function getAddress(uint32 id) public view returns(address contractAddress) {\n        return contracts[id];\n    }\n}\n",
  "sourcePath": "/home/montooboss/Desktop/GITHUB/Evoting_DAPP/contracts/Creator.sol",
  "compiler": {
    "name": "solc",
    "version": "0.5.16+commit.9c3226ce.Emscripten.clang"
  },
  "schemaVersion": "3.4.3",
  "updatedAt": "2021-11-19T13:25:28.262Z",
  "networkType": "ethereum",
  "devdoc": {
    "methods": {}
  },
  "userdoc": {
    "methods": {}
  }
}