{
  "contractName": "Registrar",
  "abi": [
    {
      "inputs": [
        {
          "internalType": "bytes32[]",
          "name": "domainList",
          "type": "bytes32[]"
        }
      ],
      "payable": false,
      "stateMutability": "nonpayable",
      "type": "constructor"
    },
    {
      "constant": false,
      "inputs": [
        {
          "internalType": "bytes32",
          "name": "email",
          "type": "bytes32"
        },
        {
          "internalType": "uint16",
          "name": "idnum",
          "type": "uint16"
        },
        {
          "internalType": "bytes32",
          "name": "_domain",
          "type": "bytes32"
        },
        {
          "internalType": "uint8",
          "name": "_permreq",
          "type": "uint8"
        }
      ],
      "name": "registerVoter",
      "outputs": [],
      "payable": false,
      "stateMutability": "nonpayable",
      "type": "function"
    },
    {
      "constant": false,
      "inputs": [
        {
          "internalType": "bytes32",
          "name": "email",
          "type": "bytes32"
        }
      ],
      "name": "givePermission",
      "outputs": [],
      "payable": false,
      "stateMutability": "nonpayable",
      "type": "function"
    },
    {
      "constant": false,
      "inputs": [
        {
          "internalType": "bytes32",
          "name": "_domain",
          "type": "bytes32"
        }
      ],
      "name": "addDomains",
      "outputs": [],
      "payable": false,
      "stateMutability": "nonpayable",
      "type": "function"
    },
    {
      "constant": true,
      "inputs": [
        {
          "internalType": "bytes32",
          "name": "domain",
          "type": "bytes32"
        }
      ],
      "name": "domainCheck",
      "outputs": [
        {
          "internalType": "bool",
          "name": "",
          "type": "bool"
        }
      ],
      "payable": false,
      "stateMutability": "view",
      "type": "function"
    },
    {
      "constant": true,
      "inputs": [
        {
          "internalType": "bytes32",
          "name": "email",
          "type": "bytes32"
        },
        {
          "internalType": "uint16",
          "name": "idnum",
          "type": "uint16"
        }
      ],
      "name": "checkReg",
      "outputs": [
        {
          "internalType": "bool",
          "name": "",
          "type": "bool"
        }
      ],
      "payable": false,
      "stateMutability": "view",
      "type": "function"
    },
    {
      "constant": true,
      "inputs": [
        {
          "internalType": "bytes32",
          "name": "email",
          "type": "bytes32"
        }
      ],
      "name": "checkVoter",
      "outputs": [
        {
          "internalType": "uint8",
          "name": "",
          "type": "uint8"
        }
      ],
      "payable": false,
      "stateMutability": "view",
      "type": "function"
    },
    {
      "constant": false,
      "inputs": [
        {
          "internalType": "address",
          "name": "_ballotAddr",
          "type": "address"
        },
        {
          "internalType": "uint32",
          "name": "_ballotID",
          "type": "uint32"
        }
      ],
      "name": "setAddress",
      "outputs": [],
      "payable": false,
      "stateMutability": "nonpayable",
      "type": "function"
    },
    {
      "constant": true,
      "inputs": [
        {
          "internalType": "uint32",
          "name": "_ballotID",
          "type": "uint32"
        }
      ],
      "name": "getAddress",
      "outputs": [
        {
          "internalType": "address",
          "name": "",
          "type": "address"
        }
      ],
      "payable": false,
      "stateMutability": "view",
      "type": "function"
    },
    {
      "constant": true,
      "inputs": [
        {
          "internalType": "bytes32",
          "name": "_email",
          "type": "bytes32"
        }
      ],
      "name": "getPermission",
      "outputs": [
        {
          "internalType": "uint8",
          "name": "",
          "type": "uint8"
        }
      ],
      "payable": false,
      "stateMutability": "view",
      "type": "function"
    }
  ],
  "bytecode": "0x608060405234801561001057600080fd5b506040516109ea3803806109ea8339818101604052602081101561003357600080fd5b810190808051604051939291908464010000000082111561005357600080fd5b8382019150602082018581111561006957600080fd5b825186602082028301116401000000008211171561008657600080fd5b8083526020830192505050908051906020019060200280838360005b838110156100bd5780820151818401526020810190506100a2565b50505050905001604052505050806000800190805190602001906100e292919061012a565b5033600960006101000a81548173ffffffffffffffffffffffffffffffffffffffff021916908373ffffffffffffffffffffffffffffffffffffffff1602179055505061019c565b828054828255906000526020600020908101928215610166579160200282015b8281111561016557825182559160200191906001019061014a565b5b5090506101739190610177565b5090565b61019991905b8082111561019557600081600090555060010161017d565b5090565b90565b61083f806101ab6000396000f3fe608060405234801561001057600080fd5b50600436106100935760003560e01c806364bb56571161006657806364bb5657146101c257806368501aee146101f0578063794459dd146102645780638a1d37ea146102b8578063d2c09a59146102e657610093565b8063138d94551461009857806333d33167146100e057806355f16d7c14610128578063646208581461016e575b600080fd5b6100c4600480360360208110156100ae57600080fd5b8101908080359060200190929190505050610339565b604051808260ff1660ff16815260200191505060405180910390f35b61010c600480360360208110156100f657600080fd5b81019080803590602001909291905050506103f0565b604051808260ff1660ff16815260200191505060405180910390f35b6101546004803603602081101561013e57600080fd5b810190808035906020019092919050505061041c565b604051808215151515815260200191505060405180910390f35b6101a86004803603604081101561018457600080fd5b8101908080359060200190929190803561ffff169060200190929190505050610476565b604051808215151515815260200191505060405180910390f35b6101ee600480360360208110156101d857600080fd5b81019080803590602001909291905050506104e8565b005b6102226004803603602081101561020657600080fd5b81019080803563ffffffff169060200190929190505050610575565b604051808273ffffffffffffffffffffffffffffffffffffffff1673ffffffffffffffffffffffffffffffffffffffff16815260200191505060405180910390f35b6102b66004803603604081101561027a57600080fd5b81019080803573ffffffffffffffffffffffffffffffffffffffff169060200190929190803563ffffffff1690602001909291905050506105c1565b005b6102e4600480360360208110156102ce57600080fd5b8101908080359060200190929190505050610687565b005b610337600480360360808110156102fc57600080fd5b8101908080359060200190929190803561ffff16906020019092919080359060200190929190803560ff169060200190929190505050610712565b005b6000806000600301600084815260200190815260200160002060009054906101000a900461ffff1661ffff16141561037457600190506103eb565b3373ffffffffffffffffffffffffffffffffffffffff166000600101600084815260200190815260200160002060009054906101000a900473ffffffffffffffffffffffffffffffffffffffff1673ffffffffffffffffffffffffffffffffffffffff16146103e657600290506103eb565b600090505b919050565b600080600201600083815260200190815260200160002060009054906101000a900460ff169050919050565b600080600090505b600080018054905081101561046b578260008001828154811061044357fe5b9060005260206000200154141561045e576001915050610471565b8080600101915050610424565b50600090505b919050565b6000806000600301600085815260200190815260200160002060009054906101000a900461ffff1661ffff161480156104cf57506000801b600060040160008461ffff1661ffff16815260200190815260200160002054145b156104dd57600190506104e2565b600090505b92915050565b600960009054906101000a900473ffffffffffffffffffffffffffffffffffffffff1673ffffffffffffffffffffffffffffffffffffffff163373ffffffffffffffffffffffffffffffffffffffff161461054257600080fd5b60016000600201600083815260200190815260200160002060006101000a81548160ff021916908360ff16021790555050565b6000600560000160008363ffffffff1663ffffffff16815260200190815260200160002060009054906101000a900473ffffffffffffffffffffffffffffffffffffffff169050919050565b81600560000160008363ffffffff1663ffffffff16815260200190815260200160002060006101000a81548173ffffffffffffffffffffffffffffffffffffffff021916908373ffffffffffffffffffffffffffffffffffffffff16021790555080600560010160008473ffffffffffffffffffffffffffffffffffffffff1673ffffffffffffffffffffffffffffffffffffffff16815260200190815260200160002060006101000a81548163ffffffff021916908363ffffffff1602179055505050565b600960009054906101000a900473ffffffffffffffffffffffffffffffffffffffff1673ffffffffffffffffffffffffffffffffffffffff163373ffffffffffffffffffffffffffffffffffffffff16146106e157600080fd5b6000800181908060018154018082558091505090600182039060005260206000200160009091929091909150555050565b6000151561071f8361041c565b1515141561072c57600080fd5b826000600301600086815260200190815260200160002060006101000a81548161ffff021916908361ffff160217905550806000600201600086815260200190815260200160002060006101000a81548160ff021916908360ff160217905550336000600101600086815260200190815260200160002060006101000a81548173ffffffffffffffffffffffffffffffffffffffff021916908373ffffffffffffffffffffffffffffffffffffffff16021790555083600060040160008561ffff1661ffff168152602001908152602001600020819055505050505056fea265627a7a72315820a5cb5ca456d1414a7850875f1ab2bc2f795244fe491b0cb732bee5703d371ff964736f6c63430005100032",
  "source": "pragma solidity >=0.4.21 <0.7.0;\n\ncontract Registrar {\n\n    struct Voter {\n        bytes32[] allowedDomains;\n        mapping (bytes32 => address) voterAddr;\n        mapping (bytes32 => uint8) createPerm;\n        mapping (bytes32 => uint16) voterID;\n        mapping (uint16 => bytes32) voterEmail;\n    }\n\n    struct Ballot {\n        mapping (uint32 => address) votingAddress;\n        mapping (address => uint32) ballotID;\n        mapping (uint64 => uint8) whitelistCheck;\n        mapping (bytes32 => uint8) allowedVoters;\n    }\n\n    Voter v;\n    Ballot b;\n    address owner;\n\n    constructor(bytes32[] memory domainList) public {\n        v.allowedDomains = domainList;\n        owner = msg.sender;\n    }\n\n    modifier onlyOwner {\n        require(msg.sender == owner);\n        _;\n    }\n\n    function registerVoter(bytes32 email, uint16 idnum, bytes32 _domain, uint8 _permreq) public {\n        if (domainCheck(_domain) == false) revert();\n        v.voterID[email] = idnum;\n        v.createPerm[email] = _permreq;\n        v.voterAddr[email] = msg.sender;\n        v.voterEmail[idnum] = email;\n    }\n\n    function givePermission(bytes32 email) public onlyOwner {\n        v.createPerm[email] = 1;\n    }\n\n    function addDomains(bytes32 _domain) public onlyOwner {\n        v.allowedDomains.push(_domain);\n    }\n\n    function domainCheck(bytes32 domain) public view returns (bool) {\n        for(uint i = 0; i < v.allowedDomains.length; i++) {\n            if (v.allowedDomains[i] == domain) {\n                return true;\n            }\n        }\n        return false;\n    }\n\n    function checkReg(bytes32 email, uint16 idnum) public view returns (bool) {\n        if (v.voterID[email] == 0 && v.voterEmail[idnum] == 0) return true;\n        else return false;\n    }\n\n    function checkVoter(bytes32 email) public view returns (uint8) {\n        if (v.voterID[email] == 0) return 1;\n        if (v.voterAddr[email] != msg.sender) return 2;\n        else return 0;\n    }\n\n    function setAddress(address _ballotAddr, uint32 _ballotID) public {\n        b.votingAddress[_ballotID] = _ballotAddr;\n        b.ballotID[_ballotAddr] = _ballotID;\n    }\n\n    function getAddress(uint32 _ballotID) public view returns (address) {\n        return b.votingAddress[_ballotID];\n    }\n\n    function getPermission(bytes32 _email) public view returns (uint8) {\n        return v.createPerm[_email];\n    }\n}\n",
  "sourcePath": "/home/montooboss/Desktop/GITHUB/Evoting_DAPP/contracts/Registrar.sol",
  "compiler": {
    "name": "solc",
    "version": "0.5.16+commit.9c3226ce.Emscripten.clang"
  },
  "schemaVersion": "3.4.3",
  "updatedAt": "2021-09-21T18:05:13.090Z",
  "networkType": "ethereum",
  "devdoc": {
    "methods": {}
  },
  "userdoc": {
    "methods": {}
  }
}