{
  "contractName": "Voting",
  "abi": [
    {
      "inputs": [
        {
          "internalType": "uint32",
          "name": "_timeLimit",
          "type": "uint32"
        },
        {
          "internalType": "uint8",
          "name": "_ballotType",
          "type": "uint8"
        },
        {
          "internalType": "uint8",
          "name": "_voteLimit",
          "type": "uint8"
        },
        {
          "internalType": "uint32",
          "name": "_ballotId",
          "type": "uint32"
        },
        {
          "internalType": "string",
          "name": "_title",
          "type": "string"
        },
        {
          "internalType": "uint8",
          "name": "_whitelist",
          "type": "uint8"
        },
        {
          "internalType": "address",
          "name": "_owner",
          "type": "address"
        }
      ],
      "payable": false,
      "stateMutability": "nonpayable",
      "type": "constructor"
    },
    {
      "constant": false,
      "inputs": [
        {
          "internalType": "bytes32[]",
          "name": "_candidates",
          "type": "bytes32[]"
        }
      ],
      "name": "setCandidates",
      "outputs": [],
      "payable": false,
      "stateMutability": "nonpayable",
      "type": "function"
    },
    {
      "constant": false,
      "inputs": [
        {
          "internalType": "bytes32[]",
          "name": "_emails",
          "type": "bytes32[]"
        }
      ],
      "name": "setWhitelisted",
      "outputs": [],
      "payable": false,
      "stateMutability": "nonpayable",
      "type": "function"
    },
    {
      "constant": false,
      "inputs": [],
      "name": "hashCandidates",
      "outputs": [],
      "payable": false,
      "stateMutability": "nonpayable",
      "type": "function"
    },
    {
      "constant": false,
      "inputs": [
        {
          "internalType": "uint256[]",
          "name": "_votes",
          "type": "uint256[]"
        },
        {
          "internalType": "bytes32",
          "name": "_email",
          "type": "bytes32"
        },
        {
          "internalType": "bytes32[]",
          "name": "_candidates",
          "type": "bytes32[]"
        }
      ],
      "name": "voteForCandidate",
      "outputs": [],
      "payable": false,
      "stateMutability": "nonpayable",
      "type": "function"
    },
    {
      "constant": true,
      "inputs": [
        {
          "internalType": "bytes32",
          "name": "cHash",
          "type": "bytes32"
        }
      ],
      "name": "votesFor",
      "outputs": [
        {
          "internalType": "uint256",
          "name": "",
          "type": "uint256"
        }
      ],
      "payable": false,
      "stateMutability": "view",
      "type": "function"
    },
    {
      "constant": true,
      "inputs": [
        {
          "internalType": "bytes32",
          "name": "cHash",
          "type": "bytes32"
        }
      ],
      "name": "totalVotesFor",
      "outputs": [
        {
          "internalType": "uint256",
          "name": "",
          "type": "uint256"
        }
      ],
      "payable": false,
      "stateMutability": "view",
      "type": "function"
    },
    {
      "constant": true,
      "inputs": [
        {
          "internalType": "bytes32",
          "name": "cHash",
          "type": "bytes32"
        }
      ],
      "name": "validCandidate",
      "outputs": [
        {
          "internalType": "bool",
          "name": "",
          "type": "bool"
        }
      ],
      "payable": false,
      "stateMutability": "view",
      "type": "function"
    },
    {
      "constant": true,
      "inputs": [
        {
          "internalType": "uint64",
          "name": "_ballotID",
          "type": "uint64"
        }
      ],
      "name": "candidateList",
      "outputs": [
        {
          "internalType": "bytes32[]",
          "name": "",
          "type": "bytes32[]"
        }
      ],
      "payable": false,
      "stateMutability": "view",
      "type": "function"
    },
    {
      "constant": true,
      "inputs": [],
      "name": "checkTimelimit",
      "outputs": [
        {
          "internalType": "bool",
          "name": "",
          "type": "bool"
        }
      ],
      "payable": false,
      "stateMutability": "view",
      "type": "function"
    },
    {
      "constant": true,
      "inputs": [],
      "name": "checkVoteattempts",
      "outputs": [
        {
          "internalType": "bool",
          "name": "",
          "type": "bool"
        }
      ],
      "payable": false,
      "stateMutability": "view",
      "type": "function"
    },
    {
      "constant": true,
      "inputs": [],
      "name": "checkWhitelist",
      "outputs": [
        {
          "internalType": "bool",
          "name": "",
          "type": "bool"
        }
      ],
      "payable": false,
      "stateMutability": "view",
      "type": "function"
    },
    {
      "constant": true,
      "inputs": [
        {
          "internalType": "bytes32",
          "name": "email",
          "type": "bytes32"
        }
      ],
      "name": "checkifWhitelisted",
      "outputs": [
        {
          "internalType": "bool",
          "name": "",
          "type": "bool"
        }
      ],
      "payable": false,
      "stateMutability": "view",
      "type": "function"
    },
    {
      "constant": true,
      "inputs": [],
      "name": "getTimelimit",
      "outputs": [
        {
          "internalType": "uint32",
          "name": "",
          "type": "uint32"
        }
      ],
      "payable": false,
      "stateMutability": "view",
      "type": "function"
    },
    {
      "constant": true,
      "inputs": [],
      "name": "getTitle",
      "outputs": [
        {
          "internalType": "string",
          "name": "",
          "type": "string"
        }
      ],
      "payable": false,
      "stateMutability": "view",
      "type": "function"
    }
  ],
  "bytecode": "0x60806040523480156200001157600080fd5b506040516200141a3803806200141a833981810160405260e08110156200003757600080fd5b8101908080519060200190929190805190602001909291908051906020019092919080519060200190929190805160405193929190846401000000008211156200008057600080fd5b838201915060208201858111156200009757600080fd5b8251866001820283011164010000000082111715620000b557600080fd5b8083526020830192505050908051906020019080838360005b83811015620000eb578082015181840152602081019050620000ce565b50505050905090810190601f168015620001195780820380516001836020036101000a031916815260200191505b50604052602001805190602001909291908051906020019092919050505086600560000160066101000a81548163ffffffff021916908363ffffffff16021790555085600560000160006101000a81548160ff021916908360ff16021790555084600560000160056101000a81548160ff021916908360ff16021790555083600560000160016101000a81548163ffffffff021916908363ffffffff1602179055508260056001019080519060200190620001d692919062000243565b5081600560020160006101000a81548160ff021916908360ff16021790555080601060006101000a81548173ffffffffffffffffffffffffffffffffffffffff021916908373ffffffffffffffffffffffffffffffffffffffff16021790555050505050505050620002f2565b828054600181600116156101000203166002900490600052602060002090601f016020900481019282601f106200028657805160ff1916838001178555620002b7565b82800160010185558215620002b7579182015b82811115620002b657825182559160200191906001019062000299565b5b509050620002c69190620002ca565b5090565b620002ef91905b80821115620002eb576000816000905550600101620002d1565b5090565b90565b61111880620003026000396000f3fe608060405234801561001057600080fd5b50600436106100ea5760003560e01c80636ec4847a1161008c578063b8381c7811610066578063b8381c7814610326578063c9ccaea1146103de578063d05841a014610534578063ff3c1a8f146105ec576100ea565b80636ec4847a14610235578063922133e314610257578063a711b87814610299576100ea565b80635374be8f116100c85780635374be8f14610199578063555a1ad6146101df5780635b9eb761146102095780636cfd8b821461022b576100ea565b806306f2057a146100ef5780632f265cf714610111578063392e667814610153575b600080fd5b6100f761066f565b604051808215151515815260200191505060405180910390f35b61013d6004803603602081101561012757600080fd5b81019080803590602001909291905050506106a0565b6040518082815260200191505060405180910390f35b61017f6004803603602081101561016957600080fd5b810190808035906020019092919050505061070e565b604051808215151515815260200191505060405180910390f35b6101c5600480360360208110156101af57600080fd5b8101908080359060200190929190505050610785565b604051808215151515815260200191505060405180910390f35b6101e76107e1565b604051808263ffffffff1663ffffffff16815260200191505060405180910390f35b6102116107fe565b604051808215151515815260200191505060405180910390f35b610233610833565b005b61023d610a87565b604051808215151515815260200191505060405180910390f35b6102836004803603602081101561026d57600080fd5b8101908080359060200190929190505050610b09565b6040518082815260200191505060405180910390f35b6102cf600480360360208110156102af57600080fd5b81019080803567ffffffffffffffff169060200190929190505050610b42565b6040518080602001828103825283818151815260200191508051906020019060200280838360005b838110156103125780820151818401526020810190506102f7565b505050509050019250505060405180910390f35b6103dc6004803603602081101561033c57600080fd5b810190808035906020019064010000000081111561035957600080fd5b82018360208201111561036b57600080fd5b8035906020019184602083028401116401000000008311171561038d57600080fd5b919080806020026020016040519081016040528093929190818152602001838360200280828437600081840152601f19601f820116905080830192505050505050509192919290505050610bb8565b005b610532600480360360608110156103f457600080fd5b810190808035906020019064010000000081111561041157600080fd5b82018360208201111561042357600080fd5b8035906020019184602083028401116401000000008311171561044557600080fd5b919080806020026020016040519081016040528093929190818152602001838360200280828437600081840152601f19601f82011690508083019250505050505050919291929080359060200190929190803590602001906401000000008111156104af57600080fd5b8201836020820111156104c157600080fd5b803590602001918460208302840111640100000000831117156104e357600080fd5b919080806020026020016040519081016040528093929190818152602001838360200280828437600081840152601f19601f820116905080830192505050505050509192919290505050610c74565b005b6105ea6004803603602081101561054a57600080fd5b810190808035906020019064010000000081111561056757600080fd5b82018360208201111561057957600080fd5b8035906020019184602083028401116401000000008311171561059b57600080fd5b919080806020026020016040519081016040528093929190818152602001838360200280828437600081840152601f19601f820116905080830192505050505050509192919290505050610e2c565b005b6105f4610ee7565b6040518080602001828103825283818151815260200191508051906020019080838360005b83811015610634578082015181840152602081019050610619565b50505050905090810190601f1680156106615780820380516001836020036101000a031916815260200191505b509250505060405180910390f35b60006001600560020160009054906101000a900460ff1660ff161415610698576001905061069d565b600090505b90565b60008015156106ad610f8c565b15151480156106c75750600115156106c36107fe565b1515145b156106d55760009050610709565b600015156106e28361070e565b151514156106ef57600080fd5b600060020160008381526020019081526020016000205490505b919050565b600080600090505b600080018054905081101561077a57600080600001828154811061073657fe5b90600052602060002001549050836000600101600083815260200190815260200160002054141561076c57600192505050610780565b508080600101915050610716565b50600090505b919050565b600080600090505b6003600001805490508110156107d65782600360000182815481106107ae57fe5b906000526020600020015414156107c95760019150506107dc565b808060010191505061078d565b50600090505b919050565b6000600560000160069054906101000a900463ffffffff16905090565b6000600560000160069054906101000a900463ffffffff1663ffffffff16421061082b5760009050610830565b600190505b90565b601060009054906101000a900473ffffffffffffffffffffffffffffffffffffffff1673ffffffffffffffffffffffffffffffffffffffff163373ffffffffffffffffffffffffffffffffffffffff161461088d57600080fd5b60008090505b6000800180549050811015610a84576000800181815481106108b157fe5b9060005260206000200154600a819055506002600a54604051602001808281526020019150506040516020818303038152906040526040518082805190602001908083835b6020831061091957805182526020820191506020810190506020830392506108f6565b6001836020036101000a038019825116818451168082178552505050505050905001915050602060405180830381855afa15801561095b573d6000803e3d6000fd5b5050506040513d602081101561097057600080fd5b810190808051906020019092919050505060006001016000600a548152602001908152602001600020819055506001600060020160006002600a54604051602001808281526020019150506040516020818303038152906040526040518082805190602001908083835b602083106109fd57805182526020820191506020810190506020830392506109da565b6001836020036101000a038019825116818451168082178552505050505050905001915050602060405180830381855afa158015610a3f573d6000803e3d6000fd5b5050506040513d6020811015610a5457600080fd5b81019080805190602001909291905050508152602001908152602001600020819055508080600101915050610893565b50565b6000600560000160059054906101000a900460ff1660ff16600360010160003373ffffffffffffffffffffffffffffffffffffffff1673ffffffffffffffffffffffffffffffffffffffff16815260200190815260200160002060009054906101000a900460ff1660ff161415610b015760009050610b06565b600190505b90565b6000801515610b178361070e565b15151415610b2457600080fd5b60006002016000838152602001908152602001600020549050919050565b606060001515610b5183610fbd565b15151415610b5e57600080fd5b60008001805480602002602001604051908101604052809291908181526020018280548015610bac57602002820191906000526020600020905b815481526020019060010190808311610b98575b50505050509050919050565b601060009054906101000a900473ffffffffffffffffffffffffffffffffffffffff1673ffffffffffffffffffffffffffffffffffffffff163373ffffffffffffffffffffffffffffffffffffffff1614610c1257600080fd5b60008090505b8151811015610c70576003600001828281518110610c3257fe5b602002602001015190806001815401808255809150509060018203906000526020600020016000909192909190915055508080600101915050610c18565b5050565b60001515610c806107fe565b15151480610c99575060001515610c95610a87565b1515145b15610ca357600080fd5b60011515610caf61066f565b1515148015610cca575060001515610cc683610785565b1515145b15610cd457600080fd5b82600d9080519060200190610cea929190610fff565b5080600e9080519060200190610d0192919061104c565b506001600360010160003373ffffffffffffffffffffffffffffffffffffffff1673ffffffffffffffffffffffffffffffffffffffff16815260200190815260200160002060008282829054906101000a900460ff160192506101000a81548160ff021916908360ff16021790555060008090505b600e80549050811015610e2657600e8181548110610d9057fe5b9060005260206000200154600a8190555060006001016000600a54815260200190815260200160002054600c8190555060001515610dcf600c5461070e565b15151415610ddc57600080fd5b600d8181548110610de957fe5b9060005260206000200154600b81905550600b5460006002016000600c548152602001908152602001600020819055508080600101915050610d76565b50505050565b601060009054906101000a900473ffffffffffffffffffffffffffffffffffffffff1673ffffffffffffffffffffffffffffffffffffffff163373ffffffffffffffffffffffffffffffffffffffff1614610e8657600080fd5b60008090505b8151811015610ee35760008001828281518110610ea557fe5b602002602001015190806001815401808255809150509060018203906000526020600020016000909192909190915055508080600101915050610e8c565b5050565b606060056001018054600181600116156101000203166002900480601f016020809104026020016040519081016040528092919081815260200182805460018160011615610100020316600290048015610f825780601f10610f5757610100808354040283529160200191610f82565b820191906000526020600020905b815481529060010190602001808311610f6557829003601f168201915b5050505050905090565b60006001600560000160009054906101000a900460ff1660ff161415610fb55760009050610fba565b600190505b90565b6000600560000160019054906101000a900463ffffffff1663ffffffff168267ffffffffffffffff161415610ff55760019050610ffa565b600090505b919050565b82805482825590600052602060002090810192821561103b579160200282015b8281111561103a57825182559160200191906001019061101f565b5b5090506110489190611099565b5090565b828054828255906000526020600020908101928215611088579160200282015b8281111561108757825182559160200191906001019061106c565b5b50905061109591906110be565b5090565b6110bb91905b808211156110b757600081600090555060010161109f565b5090565b90565b6110e091905b808211156110dc5760008160009055506001016110c4565b5090565b9056fea265627a7a723158207e5f8305092d2f808559534383258b3963cd1f4ad0e59e3ab5b3bfa1cfda91b164736f6c63430005100032",
  "source": "pragma solidity >=0.4.21 <0.7.0;\n\ncontract Voting {\n\n    struct Ballot {\n        uint8 ballotType;\n        uint32 ballotId;\n        uint8 voteLimit;\n        uint32 timeLimit;\n        string title;\n        uint8 whitelist;\n    }\n\n    struct Candidates {\n        bytes32[] candidateList;\n        mapping (bytes32 => bytes32) candidateHash;\n        mapping (bytes32 => uint256) votesReceived;\n    }\n\n    struct Voter {\n        bytes32[] whitelisted;\n        mapping (address => uint8) attemptedVotes;\n    }\n\n    Candidates c;\n    Voter v;\n    Ballot b;\n\n    string convertCandidate;\n    string tempTitle;\n    bytes32 tempCandidate;\n    uint256 tempVote;\n    bytes32 tempHash;\n    uint256[] tempVotes;\n    bytes32[] tempCandidates;\n    bytes32 tempEmail;\n    address owner;\n\n    constructor(uint32 _timeLimit, uint8 _ballotType, uint8 _voteLimit, uint32 _ballotId, string memory _title, uint8 _whitelist, address _owner) public {\n        b.timeLimit = _timeLimit;\n        b.ballotType = _ballotType;\n        b.voteLimit = _voteLimit;\n        b.ballotId = _ballotId;\n        b.title = _title;\n        b.whitelist = _whitelist;\n\n        owner = _owner;\n    }\n\n    modifier onlyOwner {\n        require(msg.sender == owner);\n        _;\n    }\n\n    function setCandidates(bytes32[] memory _candidates) public onlyOwner {\n        for(uint i = 0; i < _candidates.length; i++) {\n            c.candidateList.push(_candidates[i]);\n        }\n    }\n\n    function setWhitelisted(bytes32[] memory _emails) public onlyOwner {\n        for(uint i = 0; i < _emails.length; i++) {\n         \n            v.whitelisted.push(_emails[i]);\n        }\n    }\n\n    function hashCandidates() public onlyOwner {\n     \n        for(uint i = 0; i < c.candidateList.length; i++) {\n            tempCandidate = c.candidateList[i];\n            c.candidateHash[tempCandidate] = sha256(abi.encodePacked(tempCandidate));\n            c.votesReceived[sha256(abi.encodePacked(tempCandidate))] = 1;\n        }\n    }\n\n    function voteForCandidate(uint256[] memory _votes, bytes32 _email, bytes32[] memory _candidates) public {\n        if (checkTimelimit() == false || checkVoteattempts() == false) revert();\n        if (checkWhitelist() == true && checkifWhitelisted(_email) == false) revert();\n        tempVotes = _votes;\n        tempCandidates = _candidates;\n        v.attemptedVotes[msg.sender] += 1;\n\n        for(uint i = 0; i < tempCandidates.length; i++) {\n            tempCandidate = tempCandidates[i];\n            tempHash = c.candidateHash[tempCandidate];\n            if (validCandidate(tempHash) == false) revert();\n            tempVote = tempVotes[i];\n            c.votesReceived[tempHash] = tempVote;\n        }\n    }\n\n    function votesFor(bytes32 cHash) public view returns (uint256){\n        if (validCandidate(cHash) == false) revert();\n        return c.votesReceived[cHash];\n    }\n\n    function totalVotesFor(bytes32 cHash) public view returns (uint256){\n        if (checkBallottype() == false && checkTimelimit() == true) return 0;\n        if (validCandidate(cHash) == false) revert();\n        return c.votesReceived[cHash];\n    }\n\n    function bytes32ToString(bytes32 x) private pure returns (string memory) {\n        bytes memory bytesString = new bytes(32);\n        uint charCount = 0;\n        for (uint j = 0; j < 32; j++) {\n            byte char = byte(bytes32(uint(x) * 2 ** (8 * j)));\n            if (char != 0) {\n                bytesString[charCount] = char;\n                charCount++;\n            }\n        }\n        bytes memory bytesStringTrimmed = new bytes(charCount);\n        for (uint j = 0; j < charCount; j++) {\n            bytesStringTrimmed[j] = bytesString[j];\n        }\n        return string(bytesStringTrimmed);\n    }\n\n    function validCandidate(bytes32 cHash) public view returns (bool) {\n        for(uint k = 0; k < c.candidateList.length; k++) {\n            bytes32 t = c.candidateList[k];\n            if (c.candidateHash[t] == cHash) {\n                return true;\n            }\n        }\n        return false;\n    }\n\n    function candidateList(uint64 _ballotID) public view returns (bytes32[] memory) {\n        if (checkballotID(_ballotID) == false) revert();\n        return c.candidateList;\n    }\n\n    function checkTimelimit() public view returns (bool) {\n        if (block.timestamp >= b.timeLimit) return false;\n        else return true;\n    }\n\n    function checkBallottype() private view returns (bool) {\n        if (b.ballotType == 1) return false;\n        else return true;\n    }\n\n    function checkballotID(uint64 ballotID) private view returns (bool) {\n        if (ballotID == b.ballotId) return true;\n        else return false;\n    }\n\n    function checkVoteattempts() public view returns (bool) {\n        if (v.attemptedVotes[msg.sender] == b.voteLimit) return false;\n        else return true;\n    }\n\n    function checkWhitelist() public view returns (bool) {\n        if (b.whitelist == 1) return true;\n        else return false;\n    }\n\n    function checkifWhitelisted(bytes32 email) public view returns (bool) {\n        for(uint j = 0; j < v.whitelisted.length; j++) {\n            if (v.whitelisted[j] == email) {\n                return true;\n            }\n        }\n        return false;\n    }\n\n    function getTimelimit() public view returns (uint32) {\n        return b.timeLimit;\n    }\n\n    function getTitle() public view returns (string memory) {\n        return b.title;\n    }\n}\n\n//                         //\n//Start of Creator contract//\n//                         //\n\ncontract Creator {\n\n    mapping (uint32 => address) contracts;\n    address owner;\n\n    function createBallot(uint32 _timeLimit, uint8 _ballotType, uint8 _voteLimit, uint32 _ballotId, string memory _title, uint8 _whitelisted) public {\n        owner = msg.sender;\n        address newContract = address(new Voting(_timeLimit, _ballotType, _voteLimit, _ballotId, _title, _whitelisted, owner));\n        contracts[_ballotId] = newContract;\n    }\n\n    function getAddress(uint32 id) public view returns(address contractAddress) {\n        return contracts[id];\n    }\n}\n",
  "sourcePath": "/home/montooboss/Desktop/GITHUB/Evoting_DAPP/contracts/Creator.sol",
  "compiler": {
    "name": "solc",
    "version": "0.5.16+commit.9c3226ce.Emscripten.clang"
  },
  "schemaVersion": "3.4.3",
  "updatedAt": "2021-09-21T18:05:13.081Z",
  "networkType": "ethereum",
  "devdoc": {
    "methods": {}
  },
  "userdoc": {
    "methods": {}
  }
}